:100000000C943A000C9457000C9457000C94570031
:100010000C9457000C9457000C9457000C94570004
:100020000C9457000C9457000C9457000C945700F4
:100030000C9457000C9457000C9457000C945700E4
:100040000C9457000C9457000C9457000C945700D4
:100050000C9457000C9457000C9457000C945700C4
:100060000C9457000C9457000C9457000C945700B4
:100070000C94570011241FBECFEFD4E0DEBFCDBFDC
:1000800013E0A0E0B1E0EEEBFFE002C005900D92BE
:10009000AE34B107D9F723E0AEE4B3E001C01D925E
:1000A000A536B207E1F70E9489060C94DD070C948F
:1000B0000000E1E6F0E080E880831082A89584B734
:1000C000877F84BFE0E6F0E08081886180831082D2
:1000D0000895CF93DF9300D0CDB7DEB789831A821E
:1000E000CE0101960E947D030F900F90DF91CF917A
:1000F0000895CF93DF93EC0180E00E946104882390
:1001000011F0C2E5D0E083E00E946104882311F081
:10011000C0E5D0E081E00E946104882311F0C3E5CE
:10012000D0E082E00E946104882389F0C035D105C7
:1001300049F0C335D10549F0C235D10541F4C0E5D8
:10014000D0E005C0C3E5D0E002C0C2E5D0E0CE01FA
:10015000DF91CF91089589B1082E000C990B892F5A
:10016000881F8827881F90E0089586179707E1F079
:100170008035910531F481E090E062357105C1F47C
:1001800011C08235910531F481E090E0633571054D
:1001900079F408C08335910549F481E090E0603539
:1001A000710531F480E0089582E001C081E090E0C3
:1001B0000895853098F4673088F421E030E001C07C
:1001C000220F6A95EAF7E82FF0E0E15BFC4F922FEF
:1001D0009095808189234111822B808308958530F9
:1001E00080F4673070F421E030E001C0220F6A959E
:1001F000EAF7E82FF0E0E15BFC4F8081282381E003
:1002000009F480E0089560914E03E62FF0E0E15B91
:10021000FC4F80810E94510180914E038F5F853099
:1002200018F480934E03089510924E030895EFE45E
:10023000F3E01082118212821382148208950E94C8
:100240002F010C9417019C01FC01FF2784A1832B33
:1002500084A395A1892F832B85A381E00895CF9353
:10026000DF93CDE1D3E0899199910E94230183E04E
:10027000CB32D807C1F783E090E40E94230180E0ED
:1002800090E80E94230183E090E10E94230183E033
:1002900090E80E94230183E090E2DF91CF910C94DB
:1002A0002301E0915403F0E0EE0FFF1FED5EFC4FE1
:1002B00020813181F901FF2795A1932B95A3EDE1D1
:1002C000F3E097E020813181D901BB2795962C91ED
:1002D000959780FF03C03095232301C0232B95966B
:1002E0002C938695915032969111ECCFE62FF0E049
:1002F000EE0FFF1FED5EFC4F80819181FC01FF2717
:1003000085A19095892385A3609354030895009750
:1003100089F0FC012381621B67FD09C0062E000CD9
:10032000770B248130E081E0621773070CF080E0E6
:100330008170089580E00895CF93DF93FC01892BAD
:1003400079F18181481760F59281291748F59381E9
:10035000A62FA91BA7FD24C00A2E000CBB0BC4812D
:10036000D0E0AC17BD07E4F4622F0E945F07480F8E
:10037000858190E0BD010E9468070696242F26958E
:1003800026952695E80FF91FE20FF11D808190E078
:10039000477002C0959587954A95E2F7817001C034
:1003A00080E0DF91CF910895692F0C94EF0041E038
:1003B000611101C040E0692F0C94D9000C94D70161
:1003C0005F926F927F928F929F92AF92BF92CF92E5
:1003D000DF92EF92FF920F931F93CF93DF93562EEE
:1003E000872E942E5C01E62EF72EC62F660FDD0BAE
:1003F000C81BD10987FDD395072F770F110B091B58
:10040000110997FD1395D7FF03C077247A9402C092
:100410007724739417FF03C066246A9402C066248D
:100420006394D7FF03C0D195C195D10917FF03C0CD
:10043000119501951109C017D107A4F06E01D5944B
:10044000C794F92EA51411F1692D8A2D9F2D0E94B4
:10045000D701C01AD10AD7FE03C0CC0EDD1EF60CA0
:10046000A70CF0CF6801D594C794E82EB81471F0AA
:10047000692D8E2D9B2D0E94D701CC1ADD0AD7FE47
:1004800003C0C00ED11EE70CB60CF0CF692DC7011A
:10049000DF91CF911F910F91FF90EF90DF90CF9060
:1004A000BF90AF909F908F907F906F905F900C94D3
:1004B000D701FF920F931F93CF93DF93D82FF92E7D
:1004C000162FC72F042F792F0E94E001402F6D2F88
:1004D0007C2F8D2F9F2D0E94E001402F612F7C2FBC
:1004E000812F9F2D0E94E001402F612F7C2F8D2FA7
:1004F0009C2F0E94E001DF91CF911F910F91FF90FF
:1005000008950E941701E0E0F1E0118A1486089531
:10051000DF92EF92FF920F931F93CF93DF93D82E2A
:100520007B01162F0F2D8091020190910301D0E0E5
:10053000019799F50F2D0D1BE0910801F09109012C
:100540008181C0E0D817B8F4809108019091090129
:10055000FC012281C21768F42C2F4D2F6D2D0E94B3
:100560009C01682F8E2D8C0F902F0E94D701CF5F9A
:10057000EBCFDF5FDFCFE0910801F09109018281CD
:10058000C81740F460E08E2D8C0F902F0E94D70189
:10059000CF5FF1CF015030C0DF5F1E2D1D0FE09106
:1005A0000801F09109018181C0E0D817A8F4809179
:1005B000080190910901FC012281C21768F72C2FD4
:1005C0004D2F6D2D0E949C01682F812F9F2D9C0F18
:1005D0000E94D701CF5FEBCFE0910801F0910901B4
:1005E0008281C81740F460E0812F9F2D9C0F0E94EC
:1005F000D701CF5FF1CF1F5F812F902FDF91CF9178
:100600001F910F91FF90EF90DF9008950F931F932C
:10061000CF938C01C0E0F80181918F01882341F0D4
:100620000E948802BC01CF5F853014F477FFF3CFBE
:100630008C2FCF911F910F9108950F931F93CF93FC
:10064000DF9310920C0140930D0110921001009164
:100650000801109109010115110509F449C09B0118
:10066000EC01F8018181609106017091070190E031
:100670000E946807BC0180910A0190910B010E94C1
:100680007907CB016AE070E00E94680790930F0140
:1006900080930E01309305012093040140E250E065
:1006A000BE0181E191E00E94CE078091000190910E
:1006B00001010197E9F4FE0101900020E9F731976B
:1006C000BF016C1B7D0BF80181818F5F0E945F076A
:1006D000815020910201309103012130310511F048
:1006E00095E001C097E0981718F48EEF8093100101
:1006F000DF91CF911F910F910895209102013091C8
:1007000003012130310511F070E001C076E04FEFB8
:1007100060E00E941D03089590E09093070180938C
:10072000060108959093010180930001089590932C
:1007300003018093020108959093090180930801B9
:100740000895809155039091560301969093560316
:100750008093550320910E0130910F01821793076A
:1007600008F469C01092560310925503E0910C01F1
:10077000F0E0E050FF4F818981110AC080910D01A6
:10078000823008F458C0815080930D0110920C0102
:1007900080910C0190E0FC01E050FF4F2189222361
:1007A00009F449C0409100015091010120911001CC
:1007B0004115510521F04130510599F024C0211116
:1007C00022C060910401709105018F5E9E4F0E94CE
:1007D000060390E0019790910C01890F80930C0122
:1007E00012C0609104017091050140910201509185
:1007F00003014130510511F4720F01C0621B8F5E7D
:100800009E4F0E940603809110018F5F809310011C
:10081000082E000C990BE0910801F091090121814B
:1008200030E0281739073CF41092100180910C0138
:100830008F5F80930C010C940301CF93DF93C0E092
:10084000D1E09B878A870E941F0184E190E09F830B
:100850008E83DF91CF910C9481026230710519F182
:1008600070F46130710559F5FC01FF2724A1392F7F
:100870003095922F932394A385A183231DC06330C9
:10088000710541F064307105D1F4FC01FF2784A1AA
:10089000892B0FC0FC01FF2784A1892B84A385A18C
:1008A0009095892309C0FC01FF2784A1292F209559
:1008B000822384A385A1892B85A381E0089580E00C
:1008C0000895E82FF0E0EE0FFF1FE95AFC4F8081FA
:1008D000882321F0918181E0892702C080E090E0A7
:1008E00081700895E82FF0E0EE0FFF1FE95AFC4FEA
:1008F0008081811102C0818102C080E090E081701E
:100900000895E82FF0E0EE0FFF1FE95AFC4F8081B9
:100910000895E82FF0E0EE0FFF1FE95AFC4F908199
:1009200081E0892708957F928F929F92AF92BF9224
:10093000CF92DF92EF92FF920F931F93CF93DF93AB
:10094000C7E5D3E05BE2C52E53E0D52E66E0762EF8
:1009500088818983F601019111916F015801BB24AF
:10096000F50124A1E12EFF2485A190E08E219F2195
:1009700030E02E213F21232B31F0892B51F433E03D
:10098000832E912C0DC0892B41F488248394912CC3
:1009900007C094E0892E912C03C082E0882E912C10
:1009A00064E070E0C8010E942D0462E070E0C801BC
:1009B0000E942D04872D8A95F1F7F50183A190E01F
:1009C000E822F92281E0EF2809F080E08883B40171
:1009D000C8010E942D042296F3E0C136DF0709F01A
:1009E000B7CFDF91CF911F910F91FF90EF90DF90E4
:1009F000CF90BF90AF909F908F907F900895089573
:100A00000C9408060C9429060C940E060C941406FB
:100A10000C941A060E941A060E9414068823E1F319
:100A20008CE291E00197F1F70E94080681110C9485
:100A3000020508950C943006CF93DF9300D01F92E7
:100A4000CDB7DEB78091350390913603A09137037F
:100A500089839A83AB83509A589A0E94DB058FE66C
:100A600090E00E94720581E090E00E94CA0561E07A
:100A700070E081E090E00E94B6050E94A205CE01E0
:100A800001960E94F0050F900F900F90DF91CF918B
:100A90000895CF93DF93DC01FB0160E070E080E01C
:100AA000C1E0D0E08417C9F09191BE01092E02C0C7
:100AB000660F771F0A94E2F76F5F7F4F7695679511
:100AC0006A0F7B1F02C0769567959A95E2F76F3F94
:100AD000710519F010F08F5FE5CFF9016083DF91A8
:100AE000CF910895CF93DF931F92CDB7DEB79E01CC
:100AF0002F5F3F4F45E068E373E00E94490591E0B6
:100B0000980F909331019981915097BD18BC95B57C
:100B1000977039F095B5209131012770987F922B0D
:100B200095BD298130E0E82FF0E0E85CFC4FC90179
:100B3000008002C0880F991F0A94E2F70F90DF919E
:100B4000CF91089585B3897F85BB85B5909131019B
:100B50009770887F892B85BD089585B5887F85BD71
:100B6000089585B382FB882780F90895009719F0CE
:100B7000019741F0089584B58F736295660F660FF3
:100B8000607C05C084B563706295607F8F7C682B44
:100B900064BD0895009741F0019759F484B58E7FA4
:100BA00084BD84B5826002C084B58C7F84BD81E041
:100BB000089580E0089514BC15BC16BC18BC84B51B
:100BC0008E7F84BD84B5826084BD81E008959C01E0
:100BD000215031093093CD0081508093CC0008958D
:100BE000CF93DF93EC01888199810E94E7058A8188
:100BF0009BEF980F943008F088E098E19093C9003B
:100C00008550880F8093CA0081E0DF91CF910895CD
:100C10008091C800881F8827881F08958091C80088
:100C200085FB882780F908958091C80086FB882776
:100C300080F90895CF93C82F0E940E068823E1F310
:100C40008091C80080648093C800C093CE00CF918B
:100C500008958091C80087FFFCCF8091CE00089551
:100C6000CF93DF93EC018991882319F00E941A0633
:100C7000FACFDF91CF910895CF93DF93EC010E94DB
:100C800066069E0140E050E062E17AE780E090E095
:100C90000E948D073093640320936303DF91CF910B
:100CA000089580916103909162030E9475062091DE
:100CB0006103309162038091630390916403820F1A
:100CC000931F9093620380936103089510928000B4
:100CD00084E0809381001092850010928400089532
:100CE00080918400909185000895AC0180918400EA
:100CF000909185009C01241B350B283E3340B0F7B2
:100D000008952091840030918500820F931F0C94E8
:100D100075060E9459000E94FF040E941C0588EE7F
:100D200093E00E943C0688EE93E00E941D0482E35B
:100D300091E00E949C0382E00E948C0381E090E09D
:100D40000E9492033A9A5798612C712C72E5F72E03
:100D5000E12C812C912CC12CD12C00E010E0A12C95
:100D6000B12C0E949304C114D10481F48F2D9E2DC7
:100D70000E947900F82EE92E0E94690084E00E940A
:100D800061048823A9F00E9481020FC0A114B1045C
:100D900061F48F2D0E940A05CC24C394D12C012B21
:100DA00071F0AA24A394B12C13C0CC24C394D12CE9
:100DB000012B71F481E0A816B10409F067C08DE33E
:100DC00093E00E947D03429AAA24A394B12C5EC0B2
:100DD000E30101E010E00E94A10381E0A816B10444
:100DE00009F040C001301105D9F5429881149104F1
:100DF00011F5BE018F2D9E2D0E94B500892B19F48F
:100E00008FE393E013C0BE018F2D9E2D0E94B5008D
:100E1000019719F483E493E009C0BE018F2D9E2D44
:100E20000E94B500029739F488E493E00E947D03A4
:100E300088248394912C84E00E946104811104C071
:100E40000E94AB00892B71F092E5F92EE12C812CE8
:100E5000912CC12CD12C00E010E0A12CB12C02C0AF
:100E600000E010E00E94AB00892B61F0429882E51F
:100E7000F82EE12C812C912CC12CD12C00E010E01B
:100E8000A12CB12C0E94A1033E016BCF0E94000552
:100E9000882389F00E940205C82F880FDD0BC0351A
:100EA000D10509F496CFC335D10509F492CFC235E7
:100EB000D10509F48ECFE30100E010E08CCF0024CF
:100EC00080FD060E660F11F08695D1F7802D0895EE
:100ED0000024552704C0080E591F880F991F00973A
:100EE00029F076956795B8F37105B9F7802D952FA0
:100EF0000895AA1BBB1B51E107C0AA1FBB1FA61761
:100F0000B70710F0A61BB70B881F991F5A95A9F7B2
:100F100080959095BC01CD010895052E97FB1EF498
:100F200000940E94A40757FD07D00E94AC0707FC5D
:100F300003D04EF40C94A40750954095309521951C
:100F40003F4F4F4F5F4F08959095809570956195F5
:100F50007F4F8F4F9F4F0895A1E21A2EAA1BBB1BF4
:100F6000FD010DC0AA1FBB1FEE1FFF1FA217B30775
:100F7000E407F50720F0A21BB30BE40BF50B661F8B
:100F8000771F881F991F1A9469F76095709580954F
:100F900090959B01AC01BD01CF010895FB01DC01DF
:100FA0004150504048F001900D920020C9F701C017
:0E0FB0001D9241505040E0F70895F894FFCF95
:100FBE00000000000000140000000000000000000F
:100FCE000000000000000000000000000000000013
:100FDE000000000000000000000000000000000003
:100FEE000001010507205F050000000000C6186320
:100FFE0080014A290000004A7DF59502C417471F5B
:10100E000163222232062615519305860800000040
:10101E0088082108028220848800805457090080A5
:10102E00904F0800000060880000800F0000000054
:10103E00008C0100222202002EE63AA303C41042C5
:10104E0088032E4244C4072E4207A30388A9F41135
:10105E00023F8407A3032E8617A3033F42440801D1
:10106E002E4617A3032E460FA303C018600C00C014
:10107E00186088008888200802007CF00100822019
:10108E008888002E424400012E425BAB0344C51FEC
:10109E0063042FC617E3032E8610A2032FC618E390
:1010AE00033F8417C2073F841742002E861EA307F4
:1010BE0031C61F63048E10428803104218A30331F9
:1010CE0095515204218410C20771D71A630471D648
:1010DE001C63042EC618A3032FC61742002EC65833
:1010EE0093052FC61763042E0607A3039F1042080D
:1010FE000131C618A30331C618150131C65AAB0209
:10110E00312AA26204312A4208011F2222C2072775
:10111E008410C20120088220000E218490034445D1
:10112E00000000000000C00782200000000038E828
:10113E00A30721B419E30300B810A20310DA1CA30D
:10114E000700B8F883034C8A238400C0C7E8A103C4
:10115E0021B41963040418428803083084920121D3
:10116E00A4324A02861042880300AC5A630400B4CB
:10117E0019630400B818A30300BCF8420000D8ECB1
:10118E00210400B419420000B8E0E003421C2124FF
:10119E000300C418B30500C418150100C45AAB02ED
:1011AE00004445540400C4E8A103007C44C40788ED
:1011BE001041080284104208018210448800008801
:1011CE008A000003400080031003800320004000CB
:1011DE0020001000080004000200010380034003F9
:1011EE002000800310D00008000306080A2A0057CA
:0E11FE00494E004C4F534500445241570000EB
:00000001FF
